:03000000020006F5
:03005F0002000399
:0300030002006296
:200062007F00EF24F850030200C8EF240A83F582EF240C83F583E4738A929AA2AAB2BAC21F
:200082000000000000000000D2A2D2A3D2A48036C2A2D2A3D2A4802ED2A2C2A3D2A4802657
:2000A200C2A2C2A3D2A4801ED2A2D2A3C2A48016C2A2D2A3C2A4800ED2A2C2A3C2A48006EA
:2000C200C2A2C2A3C2A4EF9000E993F5807E64EE14FDFE70FAF5800FBF0800500302006432
:0300E200020062B7
:1100E9003F065B4F666D7D077F6F777C395E7971005E
:06003500E478FFF6D8FD9F
:200013007900E94400601B7A009000FA780175A000E493F2A308B8000205A0D9F4DAF27599
:02003300A0FF2C
:20003B007800E84400600A790175A000E4F309D8FC7800E84400600C7900900001E4F0A3C3
:04005B00D8FCD9FAFA
:0D0006007581071200E5E58260030200032A
:0400E50075820022FE
:00000001FF
