:03000000020006F5
:03005F0002000399
:0300030002006296
:20006200C287C2817FFEC2B6C2B57E00EF23540124FF92B48F05ED2DFFD2B60000C2B60E7D
:0D008200BE080040E7C2B50000D2B580D72F
:06003500E478FFF6D8FD9F
:200013007900E94400601B7A00900093780175A000E493F2A308B8000205A0D9F4DAF27500
:02003300A0FF2C
:20003B007800E84400600A790175A000E4F309D8FC7800E84400600C7900900001E4F0A3C3
:04005B00D8FCD9FAFA
:0D00060075810712008FE582600302000380
:04008F007582002254
:00000001FF
