:03000000020006F5
:20005F00750820750950750A65750B63750C68750D69750E6E750F2075105375116375129E
:16007F006975136575146E75156375166575172075180002000303
:0300030002009563
:1A0095001201057F00EF2408F98782C0071200EAD0070FBF100040ED80FE7A
:2000AF00AE82AF83EE4F60177DC77C01EC14FBFC70FAED14FCFD70F21EBEFF011F80E5221B
:2000CF00AF82C2A7C2A6C2A58F809000011200AFD2A79000051200AFC2A722AF82C2A7D281
:2000EF00A6C2A58F809000011200AFD2A79000051200AFC2A7227582381200CF75820C1204
:14010F0000CF7582061200CF7582011200CF7582800200CF0E
:06003500E478FFF6D8FD9F
:200013007900E94400601B7A00900127780175A000E493F2A308B8000205A0D9F4DAF2756B
:02003300A0FF2C
:20003B007800E84400600A790175A000E4F309D8FC7800E84400600C7900900001E4F0A3C3
:04005B00D8FCD9FAFA
:0D000600758118120123E5826003020003DA
:0401230075820022BF
:00000001FF
