:03000000020006F5
:20005F00750820750950750A65750B63750C68750D69750E6E750F2075105375116375129E
:16007F006975136575146E75156375166575172075180002000303
:0300030002009563
:1A0095001200007F00EF2408F98782C007120000D0070FBF100040ED80FE6A
:06003500E478FFF6D8FD9F
:200013007900E94400601B7A009000B3780175A000E493F2A308B8000205A0D9F4DAF275E0
:02003300A0FF2C
:20003B007800E84400600A790175A000E4F309D8FC7800E84400600C7900900001E4F0A3C3
:04005B00D8FCD9FAFA
:0D0006007581181200AFE58260030200034F
:0400AF007582002234
:00000001FF
