:03000000020006F5
:03005F0002000399
:0300030002007484
:20006200AE82AF838E048F051EBEFF011FEC4D70F32220B0FD9003E812006220B002B2A05D
:0500820030B0FD80ED2F
:06003500E478FFF6D8FD9F
:200013007900E94400601B7A0090008B780175A000E493F2A308B8000205A0D9F4DAF27508
:02003300A0FF2C
:20003B007800E84400600A790175A000E4F309D8FC7800E84400600C7900900001E4F0A3C3
:04005B00D8FCD9FAFA
:0D000600758107120087E582600302000388
:04008700758200225C
:00000001FF
