:0600000002000902006C81
:0300620002000693
:0300060002006590
:20006500D2AFD2A8D28822C0E0C007C006C005C004C0D075D0007EE87F038E048F051EBE8F
:19008500FF011FEC4D70F320B202B2A1D0D0D004D005D006D007D0E032A8
:06003800E478FFF6D8FD9C
:200016007900E94400601B7A009000A2780175A000E493F2A308B8000205A0D9F4DAF275EE
:02003600A0FF29
:20003E007800E84400600A790175A000E4F309D8FC7800E84400600C7900900001E4F0A3C0
:04005E00D8FCD9FAF7
:0D00090075810712009EE58260030200066B
:04009E007582002245
:00000001FF
