:0600000002000902006588
:0300620002000693
:030006000200975E
:20006500C0E0C007C006C005C004C0D075D0007EE87F038E048F051EBEFF011FEC4D70F34B
:1A00850020B202B2A1D0D0D004D005D006D007D0E032D2AFD2A8D28880FE8F
:06003800E478FFF6D8FD9C
:200016007900E94400601B7A009000A3780175A000E493F2A308B8000205A0D9F4DAF275ED
:02003600A0FF29
:20003E007800E84400600A790175A000E4F309D8FC7800E84400600C7900900001E4F0A3C0
:04005E00D8FCD9FAF7
:0D00090075810712009FE58260030200066A
:04009F007582002244
:00000001FF
