:04000000020029329F
:01000B0032C2
:0100130032BA
:01001B0032B2
:030023000200A038
:0300820002002653
:0300260002008550
:2000850012008A80FED2AFD2AC758920D28E758DF3758BF375985075878022C007C0D07515
:1200A500D000AF99C2988F9910990280FBD0D0D00732E0
:06005800E478FFF6D8FD7C
:200036007900E94400601B7A009000BB780175A000E493F2A308B8000205A0D9F4DAF275B5
:02005600A0FF09
:20005E007800E84400600A790175A000E4F309D8FC7800E84400600C7900900001E4F0A3A0
:04007E00D8FCD9FAD7
:0D0029007581071200B7E582600302002612
:0400B700758200222C
:00000001FF
