:03000000020006F5
:03005F0002000399
:0300030002006296
:2000620075900FE5907EE87F03EE24FFFCEF34FFFD8C068D07EC4D70F0E590AF90BF0702A6
:20008200800FBF0B028011BF0D028014BF0E1F8017E4F508F5098016750801750900800E8E
:2000A20075080275090080067508037509007590F0AF90BF70028034BFB002800ABFD00218
:2000C2008012BFE027801A740A2508F508E43509F509801874142508F508E43509F509807A
:2000E2000B741E2508F508E43509F50975A0FFC3740D9508E495095003020062E508240BCD
:2001020083F582E508241283F583E4732A2F34396262626262623E43484D01010101000042
:200122000000000001010101B2A0020062B2A1020062B2A2020062B2A3020062B2A4020083
:1001420062B2A5020062B2A6020062B2A702006217
:06003500E478FFF6D8FD9F
:200013007900E94400601B7A00900156780175A000E493F2A308B8000205A0D9F4DAF2753C
:02003300A0FF2C
:20003B007800E84400600A790175A000E4F309D8FC7800E84400600C7900900001E4F0A3C3
:04005B00D8FCD9FAFA
:0D000600758109120152E5826003020003BA
:040152007582002290
:00000001FF
