:03000000020006F5
:03005F0002000399
:0300030002006296
:200062007F0075900FE5907DE87E03ED24FFFBEE34FFFC8B058C06EB4C70F0E590AE90BE3E
:200082000702800FBE0B02800EBE0D02800DBE0E10800C7F00800A7F0180067F0280027F1A
:2000A200037590F0AE90BE70028025BEB002800ABED002800DBEE01880108F06740A2EFF96
:2000C200800E8F0674142EFF80068F06741E2EFF75A0FFEF24F2408AEF240A83F582EF245F
:2000E2001283F583E47304090E13646464646464181D222701010101000000000000010190
:200102000101B2A0020064B2A1020064B2A2020064B2A3020064B2A4020064B2A50200647C
:0A012200B2A6020064B2A702006456
:06003500E478FFF6D8FD9F
:200013007900E94400601B7A00900130780175A000E493F2A308B8000205A0D9F4DAF27562
:02003300A0FF2C
:20003B007800E84400600A790175A000E4F309D8FC7800E84400600C7900900001E4F0A3C3
:04005B00D8FCD9FAFA
:0D00060075810712012CE5826003020003E2
:04012C0075820022B6
:00000001FF
