:03000000020006F5
:03005F0002000399
:0300030002006296
:2000620075900FE5907EE87F03EE24FFFCEF34FFFD8C068D07EC4D70F0E590AF90BF0702A6
:20008200800FBF0B02800EBF0D02800DBF0E10800CC2A0800AC2A18006C2A28002C2A3751C
:2000A20090F0AF90BF7002800FBFB002800EBFD002800DBFE0AA800CC2A480A4C2A580A0BC
:0800C200C2A6809CC2A7809831
:06003500E478FFF6D8FD9F
:200013007900E94400601B7A009000CE780175A000E493F2A308B8000205A0D9F4DAF275C5
:02003300A0FF2C
:20003B007800E84400600A790175A000E4F309D8FC7800E84400600C7900900001E4F0A3C3
:04005B00D8FCD9FAFA
:0D0006007581071200CAE582600302000345
:0400CA007582002219
:00000001FF
