:03000000020006F5
:06005F0075080002000319
:030003000200E018
:2000650075900FE5907EE87F03EE24FFFCEF34FFFD8C068D07EC4D70F0E590AF90BF0702A3
:20008500800FBF0B02800FBF0D02800FBF0E14800F750800800D7508018008750802800392
:2000A5007508037590F0AF90BF7002802ABFB002800CBFD0028010BFE01D80148019AF08EE
:2000C500740A2FF5088010AF0874142FF5088007AF08741E2FF50875A0FF22120065E508E0
:2000E50024F240F7E508240B83F582E508241283F583E473151A1F24E0E0E0E0E0E0292E1A
:2001050033380101010100000000000001010101B2A00200E0B2A10200E0B2A20200E0B216
:18012500A30200E0B2A40200E0B2A50200E0B2A60200E0B2A70200E057
:06003500E478FFF6D8FD9F
:200013007900E94400601B7A00900141780175A000E493F2A308B8000205A0D9F4DAF27551
:02003300A0FF2C
:20003B007800E84400600A790175A000E4F309D8FC7800E84400600C7900900001E4F0A3C3
:04005B00D8FCD9FAFA
:0D00060075810812013DE5826003020003D0
:04013D0075820022A5
:00000001FF
