:0400000002001132B7
:03000B0002007D73
:03006A0002000E83
:03000E000200A548
:20006D00D2AF758901D28CD2A9758CFC758A1822C0E0C0D0758CFC758A180508E4B50802F0
:1D008D00050974E8B5080C7403B50907E4F508F509B2A0D0D0D0E03212006D80FE37
:06004000E478FFF6D8FD94
:20001E007900E94400601B7A009000AE780175A000E493F2A308B8000205A0D9F4DAF275DA
:02003E00A0FF21
:200046007800E84400600A790175A000E4F309D8FC7800E84400600C7900900001E4F0A3B8
:04006600D8FCD9FAEF
:0D0011007581091200AAE582600302000E4D
:0400AA007582002239
:00000001FF
