:0400000002001132B7
:03000B000201D619
:03006A0002000E83
:03000E00020206E5
:20006D007F00EF24F850030200D3EF240A83F582EF240C83F583E473959DA5ADB5BDC5CDB1
:20008D000000000000000000D2A2D2A3D2A48036C2A2D2A3D2A4802ED2A2C2A3D2A480264C
:2000AD00C2A2C2A3D2A4801ED2A2D2A3C2A48016C2A2D2A3C2A4800ED2A2C2A3C2A48006DF
:2000CD00C2A2C2A3C2A4EF240BF987807E64EE14FDFE70FAF5800FBF0800500302006F224C
:2000ED00D2AF758901D28CD2A9758CDC758A0022AE0A7F0075130A8F148E828F831202BD3D
:20010D00AE82AF83EE24F9F582EF3402F583E493FF8F0BAE0A7F0075130A8F148E828F83B3
:20012D00120287AE82AF83EE24F9F582EF3402F583E493FF8F0C750D40AE097F0075130AFB
:20014D008F148E828F831202BDAE82AF83EE24F9F582EF3402F583E493FF8F0EAE097F0032
:20016D0075130A8F148E828F83120287AE82AF83EE24F9F582EF3402F583E493FF8F0F7576
:20018D001040AE087F0075130A8F148E828F831202BDAE82AF83EE24F9F582EF3402F58324
:2001AD00E493FF8F11AE087F0075130A8F148E828F83120287AE82AF83EE24F9F582EF34EE
:2001CD0002F583E493FF8F1222C0E0C0D0758CDC758A000508749C25085019750800050915
:2001ED0074C42509500E750900050A74C4250A5003750A00D0D0D0E0321200ED1200FD12C6
:04020D00006D80F808
:1102F9003F065B4F666D7D077F6F777C395E7971004C
:06004000E478FFF6D8FD94
:20001E007900E94400601B7A0090030A780175A000E493F2A308B8000205A0D9F4DAF2757B
:02003E00A0FF21
:20021100E513451460467A01E51325E0F513E514334012F514E5829513E583951440030A62
:2002310080E6C3E51413F514E51313F513C3E5829513F5F0E58395144005F58385F082C31D
:0D025100E51413F514E51313F513DAE1229B
:200046007800E84400600A790175A000E4F309D8FC7800E84400600C7900900001E4F0A3B8
:04006600D8FCD9FAEF
:20025E007A10E4FBFCE58225E0F582E58333F583EB33FBEC33FCEB9513F5F0EC951440069E
:09027E00FCABF0438201DADD2241
:0D0011007581141202F5E582600302000EF5
:20028700C2D5E58330E70DD2D5E4C39582F582E49583F583E51430E70BE4C39513F513E48E
:1602A7009514F51412021130D50BE4C39582F582E49583F583228F
:2002BD00C2D5E58330E70DD2D5E4C39582F582E49583F583E51430E70DB2D5E4C39513F5C6
:1802DD0013E49514F51412025E30D50BE4C39582F582E49583F5832213
:0402F50075820022EC
:00000001FF
