:03000000020006F5
:03005F0002000399
:0300030002006296
:200062007E307F751EBEFF011FEE4F70F77E307F757C007D008E038BF005F074FE80022588
:20008200E0D5F0FBF5A07A607BEA1ABAFF011BEA4B70F77E607FEA0CBC00010DC3EC9408F7
:0700A200ED940040D080CA7C
:06003500E478FFF6D8FD9F
:200013007900E94400601B7A009000AD780175A000E493F2A308B8000205A0D9F4DAF275E6
:02003300A0FF2C
:20003B007800E84400600A790175A000E4F309D8FC7800E84400600C7900900001E4F0A3C3
:04005B00D8FCD9FAFA
:0D0006007581071200A9E582600302000366
:0400A900758200223A
:00000001FF
