:03000000020006F5
:03005F0002000399
:0300030002006296
:2000620075A0FE7E307F751EBEFF011FEE4F70F77E007F00E5A0C423541FF5A07C307D751B
:190082001CBCFF011DEC4D70F70EBE00010FC3EE9408EF940040DD80D7B0
:06003500E478FFF6D8FD9F
:200013007900E94400601B7A0090009F780175A000E493F2A308B8000205A0D9F4DAF275F4
:02003300A0FF2C
:20003B007800E84400600A790175A000E4F309D8FC7800E84400600C7900900001E4F0A3C3
:04005B00D8FCD9FAFA
:0D00060075810712009BE582600302000374
:04009B007582002248
:00000001FF
